S025000055534152545F53657269616C436F6D6D756E69636174696F6E5F6370702E73726563B9
S11300000C9435000C945D000C945D000C945D0020
S11300100C945D000C945D000C945D000C945D00E8
S11300200C945D000C945D000C945D000C945D00D8
S11300300C945D000C945D000C945D000C945D00C8
S11300400C945D000C945D000C942E020C94080238
S11300500C945D000C945D000C945D000C945D00A8
S11300600C945D000C945D00E80211241FBECFEFD8
S1130070D8E0DEBFCDBF11E0A0E0B1E0E8E8F6E0F3
S113008002C005900D92A232B107D9F721E0A2E295
S1130090B1E001C01D92AF3BB207E1F710E0C5E348
S11300A0D0E004C02197FE010E943703C433D10776
S11300B0C9F70E94C5020C9442030C940000CF922D
S11300C0DF92EF92FF920F931F93CF93DF936C0114
S11300D07A018B01C0E0D0E0CE15DF0581F0D801B4
S11300E06D918D01D601ED91FC910190F081E02D8F
S11300F0C6010995892B11F02196EECF7E01C70127
S1130100DF91CF911F910F91FF90EF90DF90CF90EF
S11301100895089580E090E00895FC01538D448D86
S1130120252F30E0842F90E0821B930B541710F09E
S1130130CF96089501970895FC01918D828D9817AB
S113014061F0828DDF01A80FB11D5D968C91928DB7
S11301509F5F9F73928F90E008958FEF9FEF0895B4
S1130160FC01918D828D981731F0828DE80FF11D7D
S1130170858D90E008958FEF9FEF0895FC01918D98
S1130180228D892F90E0805C9F4F821B91098F7391
S113019099270895FC01848DDF01A80FB11DA35A8E
S11301A0BF4F2C91848D90E001968F739927848F93
S11301B0A689B7892C93A089B1898C9183708064B6
S11301C08C93938D848D981306C00288F389E02D57
S11301D080818F7D80830895EF92FF920F931F9308
S11301E0CF93DF93EC0181E0888F9B8D8C8D9813E6
S11301F005C0E889F989808185FD26C0F62E0B8D1E
S113020010E00F5F1F4F0F731127E02E8C8DE81243
S11302100CC00FB607FCFACFE889F989808185FF05
S1130220F5CFCE010E94CA00F1CF8B8DFE01E80FFD
S1130230F11DE35AFF4FF0829FB7F8940B8FEA89C0
S1130240FB89808180620AC09FB7F894EE89FF8998
S11302506083E889F98980818370806480839FBF8B
S113026081E090E0DF91CF911F910F91FF90EF908B
S11302700895CF93DF93EC01888D8823C9F0EA8930
S1130280FB89808185FD05C0A889B9898C9186FD8B
S11302900FC00FB607FCF5CF808185FFF2CFA88988
S11302A0B9898C9185FFEDCFCE010E94CA00E7CFBA
S11302B0DF91CF9108956115710579F0FB010190EB
S11302C00020E9F73197AF01461B570BDC01ED9194
S11302D0FC910280F381E02D099480E090E0089580
S11302E08F929F92AF92BF92EF92FF920F931F93C0
S11302F0CF93DF93CDB7DEB7A1970FB6F894DEBFE7
S11303000FBECDBF7C01FA01CB0119A2223008F443
S11303102AE08E010F5D1F4F822E912CA12CB12C4F
S1130320BF01A50194010E941503F901CA010150FE
S113033011096A3014F4605D01C0695CD8016C93E2
S1130340232B242B252B61F7B801C7010E945B01E5
S1130350A1960FB6F894DEBF0FBECDBFDF91CF914B
S11303601F910F91FF90EF90BF90AF909F908F904F
S113037008950E943D03CF92DF92EF92FF920F9374
S11303801F93CF93DF93EC014115510539F4E881B4
S1130390F9810190F081E02D099527C06B01770F59
S11303A0EE08FF084A305105D1F4F7FE16C0E88183
S11303B0F9810190F081E02D6DE209958C014427CB
S11303C05527BA014C195D096E097F092AE0CE014F
S11303D00E947001080F191F09C02AE001C0242FD0
S11303E0B701A601CE010E9470018C016EE171E09B
S11303F0CE010E945B01800F911FDF91CF911F916D
S11304000F91FF90EF90DF90CF9008950C945B01D3
S11304101F920F920FB60F9211242F933F934F9375
S11304205F936F937F938F939F93AF93BF93EF9358
S1130430FF9382E291E00E94CA00FF91EF91BF9185
S1130440AF919F918F917F916F915F914F913F9168
S11304502F910F900FBE0F901F9018951F920F921F
S11304600FB60F9211242F938F939F93EF93FF93C3
S1130470E0913201F09133018081E0913801F091F3
S1130480390182FD12C0908180913B018F5F8F738F
S113049020913C01821751F0E0913B01F0E0EE5DC8
S11304A0FE4F958F80933B0101C08081FF91EF91B6
S11304B09F918F912F910F900FBE0F901F901895C1
S11304C0CF92DF92EF92FF921F93CF93DF93EC01D1
S11304D06A017B01122FE889F98982E08083411542
S11304E0514E61057105B1F060E079E08DE390E073
S11304F0A70196010E941503DA01C9010197A10918
S1130500B109B695A795979587959C01211580E12A
S11305103807A8F0E889F989108260E874E88EE168
S113052090E0A70196010E941503DA01C901019721
S1130530A109B109B695A795979587959C01EC8576
S1130540FD853083EE85FF852083188EEC89FD8937
S11305501083EA89FB89808180618083EA89FB8931
S1130560808188608083EA89FB89808180688083B8
S1130570EA89FB8980818F7D8083DF91CF911F91F0
S1130580FF90EF90DF90CF90089526E040E855E289
S113059060E070E082E291E00E946002C0E0D0E09E
S11305A0219662E171E082E291E00E9406024AE053
S11305B050E0BE0182E291E00E94BB012FEF89E688
S11305C098E1215080409040E1F700C00000E8CF5E
S11305D0E2E2F1E01382128288EE93E0A0E0B0E060
S11305E084839583A683B78384E091E09183808399
S11305F085EC90E09587848784EC90E097878687E4
S113060080EC90E0918B808B81EC90E0938B828BDB
S113061082EC90E0958B848B86EC90E0978B868BB4
S1130620118E128E138E148E0895A1E21A2EAA1B17
S1130630BB1BFD010DC0AA1FBB1FEE1FFF1FA2178E
S1130640B307E407F50720F0A21BB30BE40BF50B8B
S1130650661F771F881F991F1A9469F76095709514
S1130660809590959B01AC01BD01CF010895EE0FDB
S1130670FF1F0590F491E02D099481E090E0F89437
S10B06800C944203F894FFCF2F
S113068800000000EC005F008D003901BE009C00F2
S1130698B000497465726174696F6E3A20000D0A7E
S10506A800004C
S9030000FC
