S025000055534152545F53657269616C436F6D6D756E69636174696F6E5F6370702E73726563B9
S11300000C945D000C9485000C9485000C94850080
S11300100C9485000C9485000C9485000C94850048
S11300200C9485000C9485000C9485000C94850038
S11300300C9485000C9485000C9485000C94850028
S11300400C9496020C9485000C941A030C94F402FC
S11300500C9485000C9485000C9485000C94850008
S11300600C9485000C9485000000000024002700F7
S11300702A0000000000250028002B0004040404CA
S1130080040404040202020202020303030303033E
S1130090010204081020408001020408102001021B
S11300A004081020000000080002010000030407F7
S11300B00000000000000000220411241FBECFEF46
S11300C0D8E0DEBFCDBF11E0A0E0B1E0ECEFF8E096
S11300D002C005900D92A232B107D9F721E0A2E245
S11300E0B1E001C01D92A83CB207E1F710E0CDE5F4
S11300F0D0E004C02197FE010E947104CC35D107E1
S1130100C9F70E94D8030C947C040C9400003FB7F8
S1130110F8948091C4019091C501A091C601B09159
S1130120C70126B5A89B05C02F3F19F00196A11D54
S1130130B11D3FBFBA2FA92F982F8827820F911D79
S1130140A11DB11DBC01CD0142E0660F771F881FC0
S1130150991F4A95D1F70895CF92DF92EF92FF92BB
S11301600F931F93CF93DF936C017A018B01C0E04F
S1130170D0E0CE15DF0581F0D8016D918D01D60157
S1130180ED91FC910190F081E02DC6010995892B38
S113019011F02196EECF7E01C701DF91CF911F911F
S11301A00F91FF90EF90DF90CF900895089580E035
S11301B090E00895FC01538D448D252F30E0842F69
S11301C090E0821B930B541710F0CF96089501977B
S11301D00895FC01918D828D981761F0828DDF0165
S11301E0A80FB11D5D968C91928D9F5F9F73928F26
S11301F090E008958FEF9FEF0895FC01918D828D1B
S1130200981731F0828DE80FF11D858D90E00895E7
S11302108FEF9FEF0895FC01918D228D892F90E03F
S1130220805C9F4F821B91098F739927089582E206
S113023091E00E940B0121E0892B09F420E0822F38
S11302400895FC01848DDF01A80FB11DA35ABF4F8F
S11302502C91848D90E001968F739927848FA689C1
S1130260B7892C93A089B1898C91837080648C9315
S1130270938D848D981306C00288F389E02D8081C4
S11302808F7D80830895EF92FF920F931F93CF93F6
S1130290DF93EC0181E0888F9B8D8C8D981305C0D2
S11302A0E889F989808185FD26C0F62E0B8D10E042
S11302B00F5F1F4F0F731127E02E8C8DE8120CC0B7
S11302C00FB607FCFACFE889F989808185FFF5CF5D
S11302D0CE010E942101F1CF8B8DFE01E80FF11DAB
S11302E0E35AFF4FF0829FB7F8940B8FEA89FB899A
S11302F0808180620AC09FB7F894EE89FF89608389
S1130300E889F98980818370806480839FBF81E05C
S113031090E0DF91CF911F910F91FF90EF9008959E
S1130320CF93DF93EC01888D8823C9F0EA89FB8998
S1130330808185FD05C0A889B9898C9186FD0FC08F
S11303400FB607FCF5CF808185FFF2CFA889B98964
S11303508C9185FFEDCFCE010E942101E7CFDF9183
S1130360CF91089580E090E0892B29F00E94170135
S113037081110C94000008956115710579F0FB0159
S113038001900020E9F73197AF01461B570BDC01C0
S1130390ED91FC910280F381E02D099480E090E0DE
S11303A008950E94770490E0FC01EC55FF4F2491DE
S11303B0FC01E057FF4F3491FC01E458FF4FE491F6
S11303C0EE2309F43CC0222339F1233091F038F4B0
S11303D02130A9F0223001F584B58F7D12C0273079
S11303E091F02830A1F02430B9F4809180008F7D01
S11303F003C0809180008F77809380000DC084B506
S11304008F7784BD09C08091B0008F7703C080913D
S1130410B0008F7D8093B000F0E0EE0FFF1FEE5828
S1130420FF4FA591B4919FB7F894611104C08C91CA
S11304303095382302C0EC913E2B3C939FBF089526
S1130440CF93DF9390E0FC01E057FF4F2491FC0130
S1130450E458FF4F8491882361F190E0880F991F3D
S1130460FC01E859FF4FC591D491FC01EE58FF4FB0
S1130470A591B491611109C09FB7F8948881209522
S113048082238883EC912E230BC0623061F49FB7E2
S1130490F8948881322F309583238883EC912E2B16
S11304A02C939FBF06C08FB7F894E8812E2B288326
S11304B08FBFDF91CF9108958F929F92AF92BF9299
S11304C0CF92DF92EF92FF926B017C010E94870032
S11304D04B015C01C114D104E104F104F1F00E9468
S11304E08700DC01CB0188199909AA09BB09883E58
S11304F09340A105B10570F321E0C21AD108E108C7
S1130500F10888EE880E83E0981EA11CB11CC1146A
S1130510D104E104F10419F7DDCFFF90EF90DF90EF
S1130520CF90BF90AF909F908F9008951F920F929D
S11305300FB60F9211242F933F938F939F93AF93F2
S1130540BF938091C0019091C101A091C201B0916B
S1130550C3013091BF0123E0230F2D3720F401960E
S1130560A11DB11D05C026E8230F0296A11DB11DD2
S11305702093BF018093C0019093C101A093C20155
S1130580B093C3018091C4019091C501A091C601AB
S1130590B091C7010196A11DB11D8093C401909330
S11305A0C501A093C601B093C701BF91AF919F91BC
S11305B08F913F912F910F900FBE0F901F90189520
S11305C00F931F93CF93DF93EC010E94BC018C0126
S11305D06EE171E0CE010E94BC01800F911FDF919A
S11305E0CF911F910F9108951F920F920FB60F9202
S11305F011242F933F934F935F936F937F938F9324
S11306009F93AF93BF93EF93FF9382E291E00E9495
S11306102101FF91EF91BF91AF919F918F917F91B4
S11306206F915F914F913F912F910F900FBE0F905B
S11306301F9018951F920F920FB60F9211242F93AB
S11306408F939F93EF93FF93E0913201F0913301E5
S11306508081E0913801F091390182FD12C09081CE
S113066080913B018F5F8F7320913C01821751F081
S1130670E0913B01F0E0EE5DFE4F958F80933B01EE
S113068001C08081FF91EF919F918F912F910F90E5
S11306900FBE0F901F901895CF92DF92EF92FF92AA
S11306A01F93CF93DF93EC016A017B01122FE8893A
S11306B0F98982E080834115514E61057105B1F0DD
S11306C060E079E08DE390E0A70196010E944F0479
S11306D0DA01C9010197A109B109B695A7959795C2
S11306E087959C01211580E13807A8F0E889F989EC
S11306F0108260E874E88EE190E0A70196010E9400
S11307004F04DA01C9010197A109B109B695A7956A
S1130710979587959C01EC85FD853083EE85FF8553
S11307202083188EEC89FD891083EA89FB898081F6
S113073080618083EA89FB89808188608083EA897B
S1130740FB89808180688083EA89FB8980818F7D31
S11307508083DF91CF911F91FF90EF90DF90CF9036
S1130760089561E08DE00E94200226E040E855E211
S113077060E070E082E291E00C944C0361E08DE073
S11307800E94D30164EF71E080E090E00E945C027B
S113079060E08DE00E94D30164EF71E080E090E0BE
S11307A00E945C0262E171E082E291E00C94E0025A
S11307B0789484B5826084BD84B5816084BD85B538
S11307C0826085BD85B5816085BD80916E00816044
S11307D080936E00109281008091810082608093EA
S11307E081008091810081608093810080918000EC
S11307F08160809380008091B10084608093B10017
S11308008091B00081608093B00080917A00846010
S113081080937A0080917A00826080937A0080913C
S11308207A00816080937A0080917A008068809356
S11308307A001092C1000E94B1030E94BE030E947C
S1130840B201FBCFE2E2F1E01382128288EE93E080
S1130850A0E0B0E084839583A683B78384E091E02D
S11308609183808385EC90E09587848784EC90E085
S11308709787868780EC90E0918B808B81EC90E069
S1130880938B828B82EC90E0958B848B86EC90E04A
S1130890978B868B118E128E138E148E0895A1E27F
S11308A01A2EAA1BBB1BFD010DC0AA1FBB1FEE1FE6
S11308B0FF1FA217B307E407F50720F0A21BB30B31
S11308C0E40BF50B661F771F881F991F1A9469F7AD
S11308D060957095809590959B01AC01BD01CF0109
S11308E00895EE0FFF1F0590F491E02D099481E027
S10F08F090E0F8940C947C04F894FFCF82
S11308FC000000004301AC00DA0090010B01E90098
S113090CFD0048656C6C6F207468657265000D0A97
S105091C0000D5
S9030000FC
